:020000040000FA
:08000000803102288731F22F44
:100AA0001630210097000800FE0012001E00FE0B09
:100AB000552D00347A30210099009A0198012200C6
:100AC000960108008531A625853185315A25853165
:100AD000853150250800483465346C346C346F34EB
:100AE000203477346F3472346C3464340034013021
:100AF000F0020030F13B700A0319710A0319080073
:100B00000630F2003030890B832DF20B832D00323A
:100B1000772D00307102203003197002031C9B2DC9
:100B20002A30890B912D00322030F0020030F13B49
:100B3000892D003200320130F0020030F13B700AA2
:100B4000031D992D710A03190800992D22008C01AB
:100B50008D018E01373021008C008D01F8308E0020
:100B6000483023008E008D0117308C0024008D0149
:100B70008C018E012100951725008C018D018E01BD
:100B8000373026008C00F0308D00FF308E003F3073
:100B900027008C00F0308D00FF308E0008003030D0
:100BA00086000030870020308400003085000C3043
:100BB000F30016001A00F30BD92D8531622585311B
:100BC0001430F0000030F100853177258531053093
:100BD000F0000030F10085318925853122000E15A5
:100BE0000530F0000030F100853189258531220083
:100BF0008E100E1030308D000530F0000030F10006
:100C000085318925853122000E110530F000003034
:100C1000F10085318925853122000E150530F0005F
:100C20000030F1008531892585311430F000003025
:100C3000F100853177258531303022008D00053077
:100C4000F0000030F10085318925853122000E1138
:100C50000530F0000030F100853189258531220012
:100C60000E150530F0000030F10085318925853101
:100C70001430F0000030F1008531772585313030B7
:100C800022008D000530F0000030F100853189250B
:100C9000853122000E110530F0000030F100853161
:100CA0008925853122000E150530F0000030F10055
:100CB000853189258531203022008D000530F000F6
:100CC0000030F10085318925853122000E11053073
:100CD000F0000030F10085318925853122000E15A4
:100CE0000530F0000030F100853189258531203054
:100CF00022008D000530F0000030F100853189259B
:100D0000853122000E110530F0000030F1008531F0
:100D10008925853122000E150530F0000030F100E4
:100D2000853189258531803022008D000530F00025
:100D30000030F10085318925853122000E11053002
:100D4000F0000030F10085318925853122000E1533
:100D50000530F0000030F1008531892585310A30F9
:100D6000F0000030F10085317725853122008D01BA
:100D70000530F0000030F1008531892585312200F1
:100D80000E110530F0000030F100853189258531E4
:100D900022000E150530F0000030F1008531892564
:100DA0008531C03022008D000530F0000030F100A8
:100DB00085318925853122000E110530F000003083
:100DC000F10085318925853122000E150530F000AE
:100DD0000030F1008531892585310A30F00000307E
:100DE000F10085317725853122008D010530F00035
:100DF0000030F10085318925853122000E11053042
:100E0000F0000030F10085318925853122000E1572
:100E10000530F0000030F100853189258531103032
:100E200022008D000530F0000030F1008531892569
:100E3000853122000E110530F0000030F1008531BF
:100E40008925853122000E150530F0000030F100B3
:100E50008531892585310A30F0000030F100853177
:100E60007725853122008D010530F0000030F1003A
:100E700085318925853122000E110530F0000030C2
:100E8000F10085318925853122000E150530F000ED
:100E90000030F100853189258531603022008D00D8
:100EA0000530F0000030F1008531892585312200C0
:100EB0000E110530F0000030F100853189258531B3
:100EC00022000E150530F0000030F1008531892533
:100ED00085310A30F0000030F10085317725853109
:100EE0000C302000AC000030AD00AE01AF0122009C
:100EF0000E1420002C08FF3EF300FF302D3DF400BF
:100F00002F08803AF5007408803A7502031D8A2F75
:100F100073082E020318F02F20002E08203E8600B2
:100F20008701010822008D000530F0000030F1003B
:100F300085318925853122000E110530F000003001
:100F4000F10085318925853122000E150530F0002C
:100F50000030F10085318925853120002E08203EA2
:100F6000860087010108F3000330F335FF3E031DBF
:100F7000B52F7335F4002E08203E860087017408D3
:100F800081002E08203E86008701010822008D0086
:100F90000530F0000030F1008531892585312200CF
:100FA0000E110530F0000030F100853189258531C2
:100FB00022000E150530F0000030F1008531892542
:100FC00085316430F0000030F100853189258531AC
:100FD00020002E08013EAE0000302F3DAF00792FDB
:100FE0000000F02F6B3084008530850030308600A3
:100FF000003087000C308531542520008531CF2DFD
:020000040001F9
:04000E00E43FFB3E92
:00000001FF
